{
  "_format": "hh-sol-artifact-1",
  "contractName": "Calculator",
  "sourceName": "contracts/Calculator.sol",
  "abi": [
    {
      "inputs": [],
      "name": "aa",
      "outputs": [
        {
          "internalType": "uint256",
          "name": "",
          "type": "uint256"
        }
      ],
      "stateMutability": "view",
      "type": "function"
    },
    {
      "inputs": [
        {
          "internalType": "uint256",
          "name": "a",
          "type": "uint256"
        },
        {
          "internalType": "uint256",
          "name": "b",
          "type": "uint256"
        }
      ],
      "name": "add",
      "outputs": [
        {
          "internalType": "uint256",
          "name": "",
          "type": "uint256"
        }
      ],
      "stateMutability": "pure",
      "type": "function"
    },
    {
      "inputs": [
        {
          "internalType": "uint256",
          "name": "a",
          "type": "uint256"
        },
        {
          "internalType": "uint256",
          "name": "b",
          "type": "uint256"
        }
      ],
      "name": "divide",
      "outputs": [
        {
          "internalType": "uint256",
          "name": "",
          "type": "uint256"
        }
      ],
      "stateMutability": "pure",
      "type": "function"
    },
    {
      "inputs": [],
      "name": "getter",
      "outputs": [
        {
          "internalType": "uint256",
          "name": "",
          "type": "uint256"
        }
      ],
      "stateMutability": "view",
      "type": "function"
    },
    {
      "inputs": [
        {
          "internalType": "uint256",
          "name": "a",
          "type": "uint256"
        },
        {
          "internalType": "uint256",
          "name": "b",
          "type": "uint256"
        }
      ],
      "name": "multiply",
      "outputs": [
        {
          "internalType": "uint256",
          "name": "",
          "type": "uint256"
        }
      ],
      "stateMutability": "pure",
      "type": "function"
    },
    {
      "inputs": [
        {
          "internalType": "uint256",
          "name": "_a",
          "type": "uint256"
        }
      ],
      "name": "setter",
      "outputs": [],
      "stateMutability": "nonpayable",
      "type": "function"
    },
    {
      "inputs": [
        {
          "internalType": "uint256",
          "name": "a",
          "type": "uint256"
        },
        {
          "internalType": "uint256",
          "name": "b",
          "type": "uint256"
        }
      ],
      "name": "subtract",
      "outputs": [
        {
          "internalType": "uint256",
          "name": "",
          "type": "uint256"
        }
      ],
      "stateMutability": "pure",
      "type": "function"
    }
  ],
  "bytecode": "0x6080604052600a600055348015601457600080fd5b506105ba806100246000396000f3fe608060405234801561001057600080fd5b506004361061007d5760003560e01c80638466c3e61161005b5780638466c3e614610112578063993a04b714610130578063d423740b1461014e578063f88e9fbf1461016a5761007d565b8063165c4a16146100825780633ef5e445146100b2578063771602f7146100e2575b600080fd5b61009c600480360381019061009791906102cb565b61019a565b6040516100a9919061031a565b60405180910390f35b6100cc60048036038101906100c791906102cb565b6101b0565b6040516100d9919061031a565b60405180910390f35b6100fc60048036038101906100f791906102cb565b610209565b604051610109919061031a565b60405180910390f35b61011a61021f565b604051610127919061031a565b60405180910390f35b610138610225565b604051610145919061031a565b60405180910390f35b61016860048036038101906101639190610335565b61022e565b005b610184600480360381019061017f91906102cb565b610238565b604051610191919061031a565b60405180910390f35b600081836101a89190610391565b905092915050565b6000818310156101f5576040517f08c379a00000000000000000000000000000000000000000000000000000000081526004016101ec90610430565b60405180910390fd5b81836102019190610450565b905092915050565b600081836102179190610484565b905092915050565b60005481565b60008054905090565b8060008190555050565b600080821161027c576040517f08c379a000000000000000000000000000000000000000000000000000000000815260040161027390610504565b60405180910390fd5b81836102889190610553565b905092915050565b600080fd5b6000819050919050565b6102a881610295565b81146102b357600080fd5b50565b6000813590506102c58161029f565b92915050565b600080604083850312156102e2576102e1610290565b5b60006102f0858286016102b6565b9250506020610301858286016102b6565b9150509250929050565b61031481610295565b82525050565b600060208201905061032f600083018461030b565b92915050565b60006020828403121561034b5761034a610290565b5b6000610359848285016102b6565b91505092915050565b7f4e487b7100000000000000000000000000000000000000000000000000000000600052601160045260246000fd5b600061039c82610295565b91506103a783610295565b92508282026103b581610295565b915082820484148315176103cc576103cb610362565b5b5092915050565b600082825260208201905092915050565b7f5375627472616374696f6e206f766572666c6f77000000000000000000000000600082015250565b600061041a6014836103d3565b9150610425826103e4565b602082019050919050565b600060208201905081810360008301526104498161040d565b9050919050565b600061045b82610295565b915061046683610295565b925082820390508181111561047e5761047d610362565b5b92915050565b600061048f82610295565b915061049a83610295565b92508282019050808211156104b2576104b1610362565b5b92915050565b7f4469766973696f6e206279207a65726f00000000000000000000000000000000600082015250565b60006104ee6010836103d3565b91506104f9826104b8565b602082019050919050565b6000602082019050818103600083015261051d816104e1565b9050919050565b7f4e487b7100000000000000000000000000000000000000000000000000000000600052601260045260246000fd5b600061055e82610295565b915061056983610295565b92508261057957610578610524565b5b82820490509291505056fea2646970667358221220769b67913573c021a475a546f4e22899730ad70e82363240b10eb5e6e652dbaa64736f6c634300081b0033",
  "linkReferences": {},
  "deployedLinkReferences": {}
}